{
  "_format": "hh-sol-artifact-1",
  "contractName": "Authentication",
  "sourceName": "contracts/Authentication.sol",
  "abi": [
    {
      "inputs": [],
      "name": "NAME_NOT_AVAILABLE",
      "type": "error"
    },
    {
      "inputs": [],
      "name": "ZERO_ADDRESS_NOT_ALLOWED",
      "type": "error"
    },
    {
      "anonymous": false,
      "inputs": [
        {
          "indexed": true,
          "internalType": "address",
          "name": "_address",
          "type": "address"
        },
        {
          "indexed": true,
          "internalType": "bytes",
          "name": "name",
          "type": "bytes"
        }
      ],
      "name": "MemberEnrolled",
      "type": "event"
    },
    {
      "inputs": [
        {
          "internalType": "bytes",
          "name": "_name",
          "type": "bytes"
        }
      ],
      "name": "createAccount",
      "outputs": [],
      "stateMutability": "nonpayable",
      "type": "function"
    },
    {
      "inputs": [
        {
          "internalType": "bytes",
          "name": "_name",
          "type": "bytes"
        }
      ],
      "name": "getAddressFromName",
      "outputs": [
        {
          "internalType": "address",
          "name": "",
          "type": "address"
        }
      ],
      "stateMutability": "view",
      "type": "function"
    },
    {
      "inputs": [],
      "name": "getAllUsers",
      "outputs": [
        {
          "components": [
            {
              "internalType": "bytes",
              "name": "name",
              "type": "bytes"
            },
            {
              "internalType": "address",
              "name": "address_",
              "type": "address"
            }
          ],
          "internalType": "struct Authentication.User[]",
          "name": "",
          "type": "tuple[]"
        }
      ],
      "stateMutability": "view",
      "type": "function"
    },
    {
      "inputs": [
        {
          "internalType": "address",
          "name": "_userAddress",
          "type": "address"
        }
      ],
      "name": "getUserInfo",
      "outputs": [
        {
          "components": [
            {
              "internalType": "bytes",
              "name": "name",
              "type": "bytes"
            },
            {
              "internalType": "address",
              "name": "address_",
              "type": "address"
            }
          ],
          "internalType": "struct Authentication.User",
          "name": "",
          "type": "tuple"
        }
      ],
      "stateMutability": "view",
      "type": "function"
    },
    {
      "inputs": [
        {
          "internalType": "bytes",
          "name": "_name",
          "type": "bytes"
        }
      ],
      "name": "getUserInfoFromName",
      "outputs": [
        {
          "components": [
            {
              "internalType": "bytes",
              "name": "name",
              "type": "bytes"
            },
            {
              "internalType": "address",
              "name": "address_",
              "type": "address"
            }
          ],
          "internalType": "struct Authentication.User",
          "name": "",
          "type": "tuple"
        }
      ],
      "stateMutability": "view",
      "type": "function"
    },
    {
      "inputs": [
        {
          "internalType": "bytes",
          "name": "_name",
          "type": "bytes"
        }
      ],
      "name": "usernameExist",
      "outputs": [
        {
          "internalType": "bool",
          "name": "",
          "type": "bool"
        }
      ],
      "stateMutability": "view",
      "type": "function"
    },
    {
      "inputs": [
        {
          "internalType": "uint256",
          "name": "",
          "type": "uint256"
        }
      ],
      "name": "users",
      "outputs": [
        {
          "internalType": "bytes",
          "name": "name",
          "type": "bytes"
        },
        {
          "internalType": "address",
          "name": "address_",
          "type": "address"
        }
      ],
      "stateMutability": "view",
      "type": "function"
    }
  ],
  "bytecode": "0x6080604052348015600f57600080fd5b5061157e8061001f6000396000f3fe608060405234801561001057600080fd5b506004361061007d5760003560e01c8063a9ea858f1161005b578063a9ea858f14610113578063e2842d791461012f578063f3c1cadd1461014d578063fce0f3901461017d5761007d565b80632ddbdcb614610082578063365b98b2146100b25780636386c1c7146100e3575b600080fd5b61009c60048036038101906100979190610c4a565b6101ad565b6040516100a99190610cb2565b60405180910390f35b6100cc60048036038101906100c79190610d03565b610277565b6040516100da929190610e01565b60405180910390f35b6100fd60048036038101906100f89190610e5d565b610353565b60405161010a9190610f20565b60405180910390f35b61012d60048036038101906101289190610c4a565b610493565b005b6101376107ef565b6040516101449190611041565b60405180910390f35b61016760048036038101906101629190610c4a565b610936565b6040516101749190610f20565b60405180910390f35b61019760048036038101906101929190610c4a565b610b07565b6040516101a49190611063565b60405180910390f35b6000806101fd84848080601f016020809104026020016040519081016040528093929190818152602001838380828437600081840152601f19601f82011690508083019250505050505050610ba1565b9050600073ffffffffffffffffffffffffffffffffffffffff1660018260405161022791906110c5565b908152602001604051809103902060009054906101000a900473ffffffffffffffffffffffffffffffffffffffff1673ffffffffffffffffffffffffffffffffffffffff16141591505092915050565b6002818154811061028757600080fd5b90600052602060002090600202016000915090508060000180546102aa9061110b565b80601f01602080910402602001604051908101604052809291908181526020018280546102d69061110b565b80156103235780601f106102f857610100808354040283529160200191610323565b820191906000526020600020905b81548152906001019060200180831161030657829003601f168201915b5050505050908060010160009054906101000a900473ffffffffffffffffffffffffffffffffffffffff16905082565b61035b610bab565b6000808373ffffffffffffffffffffffffffffffffffffffff1673ffffffffffffffffffffffffffffffffffffffff1681526020019081526020016000206040518060400160405290816000820180546103b49061110b565b80601f01602080910402602001604051908101604052809291908181526020018280546103e09061110b565b801561042d5780601f106104025761010080835404028352916020019161042d565b820191906000526020600020905b81548152906001019060200180831161041057829003601f168201915b505050505081526020016001820160009054906101000a900473ffffffffffffffffffffffffffffffffffffffff1673ffffffffffffffffffffffffffffffffffffffff1673ffffffffffffffffffffffffffffffffffffffff16815250509050919050565b600073ffffffffffffffffffffffffffffffffffffffff163373ffffffffffffffffffffffffffffffffffffffff16036104f9576040517f6fe7b73700000000000000000000000000000000000000000000000000000000815260040160405180910390fd5b600061054883838080601f016020809104026020016040519081016040528093929190818152602001838380828437600081840152601f19601f82011690508083019250505050505050610ba1565b9050600073ffffffffffffffffffffffffffffffffffffffff1660018260405161057291906110c5565b908152602001604051809103902060009054906101000a900473ffffffffffffffffffffffffffffffffffffffff1673ffffffffffffffffffffffffffffffffffffffff16146105ee576040517f62e23e9e00000000000000000000000000000000000000000000000000000000815260040160405180910390fd5b336001826040516105ff91906110c5565b908152602001604051809103902060006101000a81548173ffffffffffffffffffffffffffffffffffffffff021916908373ffffffffffffffffffffffffffffffffffffffff16021790555060008060003373ffffffffffffffffffffffffffffffffffffffff1673ffffffffffffffffffffffffffffffffffffffff168152602001908152602001600020905083838260000191826106a0929190611322565b50338160010160006101000a81548173ffffffffffffffffffffffffffffffffffffffff021916908373ffffffffffffffffffffffffffffffffffffffff1602179055506002819080600181540180825580915050600190039060005260206000209060020201600090919091909150600082018160000190816107249190611408565b506001820160009054906101000a900473ffffffffffffffffffffffffffffffffffffffff168160010160006101000a81548173ffffffffffffffffffffffffffffffffffffffff021916908373ffffffffffffffffffffffffffffffffffffffff1602179055505050838360405161079e92919061152f565b60405180910390203373ffffffffffffffffffffffffffffffffffffffff167f34fe96c3f8b03703d59d1705bd1f444f323c116802ff4db850d2e706b64d81a460405160405180910390a350505050565b60606002805480602002602001604051908101604052809291908181526020016000905b8282101561092d57838290600052602060002090600202016040518060400160405290816000820180546108469061110b565b80601f01602080910402602001604051908101604052809291908181526020018280546108729061110b565b80156108bf5780601f10610894576101008083540402835291602001916108bf565b820191906000526020600020905b8154815290600101906020018083116108a257829003601f168201915b505050505081526020016001820160009054906101000a900473ffffffffffffffffffffffffffffffffffffffff1673ffffffffffffffffffffffffffffffffffffffff1673ffffffffffffffffffffffffffffffffffffffff168152505081526020019060010190610813565b50505050905090565b61093e610bab565b600061098d84848080601f016020809104026020016040519081016040528093929190818152602001838380828437600081840152601f19601f82011690508083019250505050505050610ba1565b90506000806001836040516109a291906110c5565b908152602001604051809103902060009054906101000a900473ffffffffffffffffffffffffffffffffffffffff1673ffffffffffffffffffffffffffffffffffffffff1673ffffffffffffffffffffffffffffffffffffffff168152602001908152602001600020604051806040016040529081600082018054610a269061110b565b80601f0160208091040260200160405190810160405280929190818152602001828054610a529061110b565b8015610a9f5780601f10610a7457610100808354040283529160200191610a9f565b820191906000526020600020905b815481529060010190602001808311610a8257829003601f168201915b505050505081526020016001820160009054906101000a900473ffffffffffffffffffffffffffffffffffffffff1673ffffffffffffffffffffffffffffffffffffffff1673ffffffffffffffffffffffffffffffffffffffff168152505091505092915050565b600080610b5784848080601f016020809104026020016040519081016040528093929190818152602001838380828437600081840152601f19601f82011690508083019250505050505050610ba1565b9050600181604051610b6991906110c5565b908152602001604051809103902060009054906101000a900473ffffffffffffffffffffffffffffffffffffffff1691505092915050565b6060819050919050565b604051806040016040528060608152602001600073ffffffffffffffffffffffffffffffffffffffff1681525090565b600080fd5b600080fd5b600080fd5b600080fd5b600080fd5b60008083601f840112610c0a57610c09610be5565b5b8235905067ffffffffffffffff811115610c2757610c26610bea565b5b602083019150836001820283011115610c4357610c42610bef565b5b9250929050565b60008060208385031215610c6157610c60610bdb565b5b600083013567ffffffffffffffff811115610c7f57610c7e610be0565b5b610c8b85828601610bf4565b92509250509250929050565b60008115159050919050565b610cac81610c97565b82525050565b6000602082019050610cc76000830184610ca3565b92915050565b6000819050919050565b610ce081610ccd565b8114610ceb57600080fd5b50565b600081359050610cfd81610cd7565b92915050565b600060208284031215610d1957610d18610bdb565b5b6000610d2784828501610cee565b91505092915050565b600081519050919050565b600082825260208201905092915050565b60005b83811015610d6a578082015181840152602081019050610d4f565b60008484015250505050565b6000601f19601f8301169050919050565b6000610d9282610d30565b610d9c8185610d3b565b9350610dac818560208601610d4c565b610db581610d76565b840191505092915050565b600073ffffffffffffffffffffffffffffffffffffffff82169050919050565b6000610deb82610dc0565b9050919050565b610dfb81610de0565b82525050565b60006040820190508181036000830152610e1b8185610d87565b9050610e2a6020830184610df2565b9392505050565b610e3a81610de0565b8114610e4557600080fd5b50565b600081359050610e5781610e31565b92915050565b600060208284031215610e7357610e72610bdb565b5b6000610e8184828501610e48565b91505092915050565b600082825260208201905092915050565b6000610ea682610d30565b610eb08185610e8a565b9350610ec0818560208601610d4c565b610ec981610d76565b840191505092915050565b610edd81610de0565b82525050565b60006040830160008301518482036000860152610f008282610e9b565b9150506020830151610f156020860182610ed4565b508091505092915050565b60006020820190508181036000830152610f3a8184610ee3565b905092915050565b600081519050919050565b600082825260208201905092915050565b6000819050602082019050919050565b60006040830160008301518482036000860152610f8b8282610e9b565b9150506020830151610fa06020860182610ed4565b508091505092915050565b6000610fb78383610f6e565b905092915050565b6000602082019050919050565b6000610fd782610f42565b610fe18185610f4d565b935083602082028501610ff385610f5e565b8060005b8581101561102f57848403895281516110108582610fab565b945061101b83610fbf565b925060208a01995050600181019050610ff7565b50829750879550505050505092915050565b6000602082019050818103600083015261105b8184610fcc565b905092915050565b60006020820190506110786000830184610df2565b92915050565b600081519050919050565b600081905092915050565b600061109f8261107e565b6110a98185611089565b93506110b9818560208601610d4c565b80840191505092915050565b60006110d18284611094565b915081905092915050565b7f4e487b7100000000000000000000000000000000000000000000000000000000600052602260045260246000fd5b6000600282049050600182168061112357607f821691505b602082108103611136576111356110dc565b5b50919050565b600082905092915050565b7f4e487b7100000000000000000000000000000000000000000000000000000000600052604160045260246000fd5b60008190508160005260206000209050919050565b60006020601f8301049050919050565b600082821b905092915050565b6000600883026111d87fffffffffffffffffffffffffffffffffffffffffffffffffffffffffffffffff8261119b565b6111e2868361119b565b95508019841693508086168417925050509392505050565b6000819050919050565b600061121f61121a61121584610ccd565b6111fa565b610ccd565b9050919050565b6000819050919050565b61123983611204565b61124d61124582611226565b8484546111a8565b825550505050565b600090565b611262611255565b61126d818484611230565b505050565b5b818110156112915761128660008261125a565b600181019050611273565b5050565b601f8211156112d6576112a781611176565b6112b08461118b565b810160208510156112bf578190505b6112d36112cb8561118b565b830182611272565b50505b505050565b600082821c905092915050565b60006112f9600019846008026112db565b1980831691505092915050565b600061131283836112e8565b9150826002028217905092915050565b61132c838361113c565b67ffffffffffffffff81111561134557611344611147565b5b61134f825461110b565b61135a828285611295565b6000601f8311600181146113895760008415611377578287013590505b6113818582611306565b8655506113e9565b601f19841661139786611176565b60005b828110156113bf5784890135825560018201915060208501945060208101905061139a565b868310156113dc57848901356113d8601f8916826112e8565b8355505b6001600288020188555050505b50505050505050565b6000815490506114018161110b565b9050919050565b8181036114165750506114ee565b61141f826113f2565b67ffffffffffffffff81111561143857611437611147565b5b611442825461110b565b61144d828285611295565b6000601f83116001811461147c576000841561146a578287015490505b6114748582611306565b8655506114e7565b601f19841661148a87611176565b965061149586611176565b60005b828110156114bd57848901548255600182019150600185019450602081019050611498565b868310156114da57848901546114d6601f8916826112e8565b8355505b6001600288020188555050505b5050505050505b565b600081905092915050565b82818337600083830152505050565b600061151683856114f0565b93506115238385846114fb565b82840190509392505050565b600061153c82848661150a565b9150819050939250505056fea26469706673582212204a848be8d5fe27648d78a954f6d30d7fe38c8f2870dd61786aa15d02751f39ee64736f6c634300081b0033",
  "linkReferences": {},
  "deployedLinkReferences": {}
}